{
  "_format": "hh-sol-artifact-1",
  "contractName": "Farm",
  "sourceName": "contracts/farm/Farm.sol",
  "abi": [
    {
      "anonymous": false,
      "inputs": [
        {
          "indexed": false,
          "internalType": "uint8",
          "name": "version",
          "type": "uint8"
        }
      ],
      "name": "Initialized",
      "type": "event"
    },
    {
      "anonymous": false,
      "inputs": [
        {
          "indexed": true,
          "internalType": "address",
          "name": "user",
          "type": "address"
        },
        {
          "indexed": true,
          "internalType": "address",
          "name": "lpToken",
          "type": "address"
        },
        {
          "indexed": false,
          "internalType": "uint256",
          "name": "amount",
          "type": "uint256"
        }
      ],
      "name": "LogDeposit",
      "type": "event"
    },
    {
      "anonymous": false,
      "inputs": [
        {
          "indexed": true,
          "internalType": "address",
          "name": "lpToken",
          "type": "address"
        },
        {
          "indexed": false,
          "internalType": "uint256",
          "name": "allocPoint",
          "type": "uint256"
        }
      ],
      "name": "LogPoolAdded",
      "type": "event"
    },
    {
      "anonymous": false,
      "inputs": [
        {
          "indexed": true,
          "internalType": "address",
          "name": "lpToken",
          "type": "address"
        },
        {
          "indexed": false,
          "internalType": "uint256",
          "name": "allocPoint",
          "type": "uint256"
        }
      ],
      "name": "LogPoolAllocationUpdate",
      "type": "event"
    },
    {
      "anonymous": false,
      "inputs": [
        {
          "indexed": true,
          "internalType": "address",
          "name": "lpToken",
          "type": "address"
        },
        {
          "indexed": false,
          "internalType": "uint256",
          "name": "accRewardPerShare",
          "type": "uint256"
        },
        {
          "indexed": false,
          "internalType": "uint256",
          "name": "lastRewardBlock",
          "type": "uint256"
        }
      ],
      "name": "LogPoolRewardUpdate",
      "type": "event"
    },
    {
      "anonymous": false,
      "inputs": [
        {
          "indexed": true,
          "internalType": "address",
          "name": "user",
          "type": "address"
        },
        {
          "indexed": true,
          "internalType": "address",
          "name": "lpToken",
          "type": "address"
        },
        {
          "indexed": false,
          "internalType": "uint256",
          "name": "reward",
          "type": "uint256"
        }
      ],
      "name": "LogRewardPaid",
      "type": "event"
    },
    {
      "anonymous": false,
      "inputs": [
        {
          "indexed": true,
          "internalType": "address",
          "name": "user",
          "type": "address"
        },
        {
          "indexed": true,
          "internalType": "address",
          "name": "lpToken",
          "type": "address"
        },
        {
          "indexed": false,
          "internalType": "uint256",
          "name": "amount",
          "type": "uint256"
        }
      ],
      "name": "LogWithdraw",
      "type": "event"
    },
    {
      "anonymous": false,
      "inputs": [
        {
          "indexed": true,
          "internalType": "address",
          "name": "previousOwner",
          "type": "address"
        },
        {
          "indexed": true,
          "internalType": "address",
          "name": "newOwner",
          "type": "address"
        }
      ],
      "name": "OwnershipTransferred",
      "type": "event"
    },
    {
      "anonymous": false,
      "inputs": [
        {
          "indexed": false,
          "internalType": "address",
          "name": "account",
          "type": "address"
        }
      ],
      "name": "Paused",
      "type": "event"
    },
    {
      "anonymous": false,
      "inputs": [
        {
          "indexed": false,
          "internalType": "address",
          "name": "account",
          "type": "address"
        }
      ],
      "name": "Unpaused",
      "type": "event"
    },
    {
      "inputs": [
        {
          "internalType": "address",
          "name": "_lpToken",
          "type": "address"
        },
        {
          "internalType": "uint256",
          "name": "_allocPoint",
          "type": "uint256"
        }
      ],
      "name": "addPool",
      "outputs": [],
      "stateMutability": "nonpayable",
      "type": "function"
    },
    {
      "inputs": [
        {
          "internalType": "address",
          "name": "_lpToken",
          "type": "address"
        },
        {
          "internalType": "uint256",
          "name": "_amount",
          "type": "uint256"
        }
      ],
      "name": "deposit",
      "outputs": [],
      "stateMutability": "nonpayable",
      "type": "function"
    },
    {
      "inputs": [
        {
          "internalType": "address",
          "name": "_lpToken",
          "type": "address"
        }
      ],
      "name": "emergencyWithdraw",
      "outputs": [],
      "stateMutability": "nonpayable",
      "type": "function"
    },
    {
      "inputs": [
        {
          "internalType": "address",
          "name": "_rewardToken",
          "type": "address"
        },
        {
          "internalType": "uint256",
          "name": "_rewardPerBlock",
          "type": "uint256"
        }
      ],
      "name": "initialize",
      "outputs": [],
      "stateMutability": "nonpayable",
      "type": "function"
    },
    {
      "inputs": [],
      "name": "owner",
      "outputs": [
        {
          "internalType": "address",
          "name": "",
          "type": "address"
        }
      ],
      "stateMutability": "view",
      "type": "function"
    },
    {
      "inputs": [],
      "name": "pause",
      "outputs": [],
      "stateMutability": "nonpayable",
      "type": "function"
    },
    {
      "inputs": [],
      "name": "paused",
      "outputs": [
        {
          "internalType": "bool",
          "name": "",
          "type": "bool"
        }
      ],
      "stateMutability": "view",
      "type": "function"
    },
    {
      "inputs": [
        {
          "internalType": "address",
          "name": "",
          "type": "address"
        }
      ],
      "name": "poolInfos",
      "outputs": [
        {
          "internalType": "uint256",
          "name": "allocPoint",
          "type": "uint256"
        },
        {
          "internalType": "uint256",
          "name": "lastRewardBlock",
          "type": "uint256"
        },
        {
          "internalType": "uint256",
          "name": "accRewardPerShare",
          "type": "uint256"
        }
      ],
      "stateMutability": "view",
      "type": "function"
    },
    {
      "inputs": [],
      "name": "renounceOwnership",
      "outputs": [],
      "stateMutability": "nonpayable",
      "type": "function"
    },
    {
      "inputs": [],
      "name": "rewardPerBlock",
      "outputs": [
        {
          "internalType": "uint256",
          "name": "",
          "type": "uint256"
        }
      ],
      "stateMutability": "view",
      "type": "function"
    },
    {
      "inputs": [],
      "name": "rewardToken",
      "outputs": [
        {
          "internalType": "address",
          "name": "",
          "type": "address"
        }
      ],
      "stateMutability": "view",
      "type": "function"
    },
    {
      "inputs": [
        {
          "internalType": "uint256",
          "name": "_rewardPerBlock",
          "type": "uint256"
        }
      ],
      "name": "setRewardPerBlock",
      "outputs": [],
      "stateMutability": "nonpayable",
      "type": "function"
    },
    {
      "inputs": [
        {
          "internalType": "address",
          "name": "",
          "type": "address"
        },
        {
          "internalType": "address",
          "name": "",
          "type": "address"
        }
      ],
      "name": "stakes",
      "outputs": [
        {
          "internalType": "uint256",
          "name": "amount",
          "type": "uint256"
        },
        {
          "internalType": "uint256",
          "name": "rewardDebt",
          "type": "uint256"
        }
      ],
      "stateMutability": "view",
      "type": "function"
    },
    {
      "inputs": [],
      "name": "totalAllocPoint",
      "outputs": [
        {
          "internalType": "uint256",
          "name": "",
          "type": "uint256"
        }
      ],
      "stateMutability": "view",
      "type": "function"
    },
    {
      "inputs": [
        {
          "internalType": "address",
          "name": "newOwner",
          "type": "address"
        }
      ],
      "name": "transferOwnership",
      "outputs": [],
      "stateMutability": "nonpayable",
      "type": "function"
    },
    {
      "inputs": [],
      "name": "unpause",
      "outputs": [],
      "stateMutability": "nonpayable",
      "type": "function"
    },
    {
      "inputs": [
        {
          "internalType": "address",
          "name": "_lpToken",
          "type": "address"
        },
        {
          "internalType": "uint256",
          "name": "_allocPoint",
          "type": "uint256"
        }
      ],
      "name": "updateAllocation",
      "outputs": [],
      "stateMutability": "nonpayable",
      "type": "function"
    },
    {
      "inputs": [
        {
          "internalType": "address",
          "name": "_lpToken",
          "type": "address"
        }
      ],
      "name": "updatePoolReward",
      "outputs": [],
      "stateMutability": "nonpayable",
      "type": "function"
    },
    {
      "inputs": [
        {
          "internalType": "address",
          "name": "_lpToken",
          "type": "address"
        },
        {
          "internalType": "uint256",
          "name": "_amount",
          "type": "uint256"
        }
      ],
      "name": "withdraw",
      "outputs": [],
      "stateMutability": "nonpayable",
      "type": "function"
    }
  ],
  "bytecode": "0x6080604052600060995534801561001557600080fd5b50611315806100256000396000f3fe608060405234801561001057600080fd5b50600436106101215760003560e01c8063715018a6116100ad578063bb872b4a11610071578063bb872b4a14610290578063cd6dc687146102a3578063f2fde38b146102b6578063f3fef3a3146102c9578063f7c618c1146102dc57600080fd5b8063715018a61461020b5780638456cb59146102135780638ae39cac1461021b5780638da5cb5b14610224578063a4e47b661461024957600080fd5b806347e7ef24116100f457806347e7ef24146101a95780635c975abb146101bc57806366ae2728146101d25780636ff1c9bc146101e557806370851703146101f857600080fd5b806317caf6f11461012657806332a9caba146101425780633f4ba83a1461015757806342340a561461015f575b600080fd5b61012f60995481565b6040519081526020015b60405180910390f35b610155610150366004611130565b6102ef565b005b61015561039c565b61018e61016d36600461115a565b609a6020526000908152604090208054600182015460029092015490919083565b60408051938452602084019290925290820152606001610139565b6101556101b7366004611130565b6103ae565b60655460ff166040519015158152602001610139565b6101556101e036600461115a565b6105d7565b6101556101f336600461115a565b6106f5565b610155610206366004611130565b6107c2565b61015561084d565b61015561085f565b61012f60985481565b6033546001600160a01b03165b6040516001600160a01b039091168152602001610139565b61027b61025736600461117c565b609b6020908152600092835260408084209091529082529020805460019091015482565b60408051928352602083019190915201610139565b61015561029e3660046111af565b61086f565b6101556102b1366004611130565b610884565b6101556102c436600461115a565b6109bf565b6101556102d7366004611130565b610a38565b609754610231906001600160a01b031681565b6102f7610c66565b6102ff610cc0565b6040805160608101825282815243602080830191825260008385018181526001600160a01b0388168252609a909252938420925183559051600183015551600290910155609980548392906103559084906111de565b90915550506040518181526001600160a01b038316907f8083545495d70879ab4c631a7415a77323cabb154c3c2bccc203ef0ab59c3a0a9060200160405180910390a25050565b6103a4610c66565b6103ac610d06565b565b6103b6610cc0565b6001600160a01b0382166104005760405162461bcd60e51b815260206004820152600c60248201526b5a65726f206164647265737360a01b60448201526064015b60405180910390fd5b6000811161043e5760405162461bcd60e51b815260206004820152600b60248201526a16995c9bc8185b5bdd5b9d60aa1b60448201526064016103f7565b610447826105d7565b6001600160a01b0382166000908152609a60209081526040808320609b8352818420338552909252909120805415610510576000816001015464e8d4a510008460020154846000015461049a91906111f7565b6104a4919061120e565b6104ae9190611230565b9050801561050e576097546104cd906001600160a01b03163383610d58565b6040518181526001600160a01b0386169033907fdd58858d94d0be6876ebdfd817f0f8e9e1de4c7e88fffba2aae4e7b3a7e1cd599060200160405180910390a35b505b8281600001600082825461052491906111de565b90915550506002820154815464e8d4a5100091610540916111f7565b61054a919061120e565b60018201556105646001600160a01b038516333086610e63565b6001600160a01b0384166000908152609c60205260408120805485929061058c9084906111de565b90915550506040518381526001600160a01b0385169033907f5c8d1f77b6233deba47b516a690497af4c7f1be42a768e331832cb02b3400d6b9060200160405180910390a350505050565b6001600160a01b0381166000908152609a60205260409020600181015443116105fe575050565b6001600160a01b0382166000908152609c60205260408120549081900361062a57504360019091015550565b600082600101544361063c9190611230565b609954845460985492935060009261065490856111f7565b61065e91906111f7565b610668919061120e565b90508261067a8264e8d4a510006111f7565b610684919061120e565b84600201600082825461069791906111de565b9091555050436001850181905560028501546040805191825260208201929092526001600160a01b038716917f52a5b755a548cfc2ea2fce1829895f8be1131e116623e190cbced808bc2e7d75910160405180910390a25050505050565b6106fd610f7b565b6001600160a01b0381166000908152609b602090815260408083203384529091529020805461075d5760405162461bcd60e51b815260206004820152600c60248201526b5a65726f2062616c616e636560a01b60448201526064016103f7565b80546000808355600183015561077d6001600160a01b0384163383610d58565b6040518181526001600160a01b0384169033907f9207361cc2a04b9c7a06691df1eb87c6a63957ae88bf01d0d18c81e3d12720999060200160405180910390a3505050565b6107ca610c66565b6107d2610cc0565b6001600160a01b0382166000908152609a6020526040902080546099546107fa9084906111de565b6108049190611230565b6099558181556040518281526001600160a01b038416907ff8f2d3e75a85422ae388dcd768ac332d6c5f2032f7939be1bf82341e9ed5cf489060200160405180910390a2505050565b610855610c66565b6103ac6000610fc4565b610867610c66565b6103ac611016565b610877610c66565b61087f610cc0565b609855565b600054610100900460ff16158080156108a45750600054600160ff909116105b806108be5750303b1580156108be575060005460ff166001145b6109215760405162461bcd60e51b815260206004820152602e60248201527f496e697469616c697a61626c653a20636f6e747261637420697320616c72656160448201526d191e481a5b9a5d1a585b1a5e995960921b60648201526084016103f7565b6000805460ff191660011790558015610944576000805461ff0019166101001790555b61094c611053565b610954611082565b609780546001600160a01b0319166001600160a01b038516179055609882905580156109ba576000805461ff0019169055604051600181527f7f26b83ff96e1f2b6a682f133852f6798a09c465da95921460cefb38474024989060200160405180910390a15b505050565b6109c7610c66565b6001600160a01b038116610a2c5760405162461bcd60e51b815260206004820152602660248201527f4f776e61626c653a206e6577206f776e657220697320746865207a65726f206160448201526564647265737360d01b60648201526084016103f7565b610a3581610fc4565b50565b610a40610cc0565b6001600160a01b038216610a855760405162461bcd60e51b815260206004820152600c60248201526b5a65726f206164647265737360a01b60448201526064016103f7565b6001600160a01b0382166000908152609a60209081526040808320609b83528184203385529092529091208054831115610af95760405162461bcd60e51b8152602060048201526015602482015274139bdd081cdd59999a58da595b9d08185b5bdd5b9d605a1b60448201526064016103f7565b610b02846105d7565b6000816001015464e8d4a5100084600201548460000154610b2391906111f7565b610b2d919061120e565b610b379190611230565b90508015610b9757609754610b56906001600160a01b03163383610d58565b6040518181526001600160a01b0386169033907fdd58858d94d0be6876ebdfd817f0f8e9e1de4c7e88fffba2aae4e7b3a7e1cd599060200160405180910390a35b8315610bf95783826000016000828254610bb19190611230565b90915550610bcb90506001600160a01b0386163386610d58565b6001600160a01b0385166000908152609c602052604081208054869290610bf39084906111de565b90915550505b6002830154825464e8d4a5100091610c10916111f7565b610c1a919061120e565b60018301556040518481526001600160a01b0386169033907f9207361cc2a04b9c7a06691df1eb87c6a63957ae88bf01d0d18c81e3d12720999060200160405180910390a35050505050565b6033546001600160a01b031633146103ac5760405162461bcd60e51b815260206004820181905260248201527f4f776e61626c653a2063616c6c6572206973206e6f7420746865206f776e657260448201526064016103f7565b60655460ff16156103ac5760405162461bcd60e51b815260206004820152601060248201526f14185d5cd8589b194e881c185d5cd95960821b60448201526064016103f7565b610d0e610f7b565b6065805460ff191690557f5db9ee0a495bf2e6ff9c91a7834c1ba4fdd244a5e8aa4e537bd38aeae4b073aa335b6040516001600160a01b03909116815260200160405180910390a1565b604080516001600160a01b038481166024830152604480830185905283518084039091018152606490920183526020820180516001600160e01b031663a9059cbb60e01b1790529151600092839290871691610db49190611243565b6000604051808303816000865af19150503d8060008114610df1576040519150601f19603f3d011682016040523d82523d6000602084013e610df6565b606091505b5091509150818015610e20575080511580610e20575080806020019051810190610e209190611272565b610e5c5760405162461bcd60e51b815260206004820152600d60248201526c10b9b0b332aa3930b739b332b960991b60448201526064016103f7565b5050505050565b604080516001600160a01b0385811660248301528481166044830152606480830185905283518084039091018152608490920183526020820180516001600160e01b03166323b872dd60e01b1790529151600092839290881691610ec79190611243565b6000604051808303816000865af19150503d8060008114610f04576040519150601f19603f3d011682016040523d82523d6000602084013e610f09565b606091505b5091509150818015610f33575080511580610f33575080806020019051810190610f339190611272565b610f735760405162461bcd60e51b815260206004820152601160248201527021736166655472616e7366657246726f6d60781b60448201526064016103f7565b505050505050565b60655460ff166103ac5760405162461bcd60e51b815260206004820152601460248201527314185d5cd8589b194e881b9bdd081c185d5cd95960621b60448201526064016103f7565b603380546001600160a01b038381166001600160a01b0319831681179093556040519116919082907f8be0079c531659141344cd1fd0a4f28419497f9722a3daafe3b4186f6b6457e090600090a35050565b61101e610cc0565b6065805460ff191660011790557f62e78cea01bee320cd4e420270b5ea74000d11b0c9f74754ebdbfc544b05a258610d3b3390565b600054610100900460ff1661107a5760405162461bcd60e51b81526004016103f790611294565b6103ac6110b1565b600054610100900460ff166110a95760405162461bcd60e51b81526004016103f790611294565b6103ac6110e1565b600054610100900460ff166110d85760405162461bcd60e51b81526004016103f790611294565b6103ac33610fc4565b600054610100900460ff166111085760405162461bcd60e51b81526004016103f790611294565b6065805460ff19169055565b80356001600160a01b038116811461112b57600080fd5b919050565b6000806040838503121561114357600080fd5b61114c83611114565b946020939093013593505050565b60006020828403121561116c57600080fd5b61117582611114565b9392505050565b6000806040838503121561118f57600080fd5b61119883611114565b91506111a660208401611114565b90509250929050565b6000602082840312156111c157600080fd5b5035919050565b634e487b7160e01b600052601160045260246000fd5b808201808211156111f1576111f16111c8565b92915050565b80820281158282048414176111f1576111f16111c8565b60008261122b57634e487b7160e01b600052601260045260246000fd5b500490565b818103818111156111f1576111f16111c8565b6000825160005b81811015611264576020818601810151858301520161124a565b506000920191825250919050565b60006020828403121561128457600080fd5b8151801515811461117557600080fd5b6020808252602b908201527f496e697469616c697a61626c653a20636f6e7472616374206973206e6f74206960408201526a6e697469616c697a696e6760a81b60608201526080019056fea264697066735822122082d366b2acac6bdacaf3062f5ddd73f41f133c0b09821cc6ebfb9a2426cd297864736f6c63430008110033",
  "linkReferences": {},
  "deployedLinkReferences": {}
}